{
  "contractName": "A",
  "abi": [
    {
      "constant": true,
      "inputs": [],
      "name": "a",
      "outputs": [
        {
          "name": "",
          "type": "address"
        }
      ],
      "payable": false,
      "stateMutability": "view",
      "type": "function"
    }
  ],
  "bytecode": "0x608060405234801561001057600080fd5b50610124806100206000396000f3fe6080604052348015600f57600080fd5b506004361060285760003560e01c80630dbe671f14602d575b600080fd5b60336075565b604051808273ffffffffffffffffffffffffffffffffffffffff1673ffffffffffffffffffffffffffffffffffffffff16815260200191505060405180910390f35b600073__C_____________________________________630dbe671f6040518163ffffffff1660e01b815260040160206040518083038186803b15801560ba57600080fd5b505af415801560cd573d6000803e3d6000fd5b505050506040513d602081101560e257600080fd5b810190808051906020019092919050505090509056fea165627a7a72305820647d0a82b40d2c3a36a2e664a0436034b781bbe258220097196ec255d9bf1f3c0029",
  "source": "pragma solidity >=0.4.25 <0.6.0;\n\nimport \"./C.sol\";\n\n/// @title A - Implementing the contract for an example  for a Library Driven Development approach.\n/// @author Edgar Herrador - <edgar.herrador@slock.it>\ncontract A {\n\n    /*\n     * Public functions\n     */\n\n    /// @dev When function a() of contract A is called, the contract will made a call (DELEGATECALL) to the function a() of the library and the calling context is passed to the library.\n    /// @return The address of this funtion is returned and not the library's.\n    function a() public view returns (address) {\n        return C.a();\n    }\n}",
  "sourcePath": "/Users/edgarherrador/Documents/Projects/custody/brot/contracts/A.sol",
  "compiler": {
    "name": "solc",
    "version": "0.5.8+commit.23d335f2.Emscripten.clang"
  },
  "schemaVersion": "3.0.13",
  "updatedAt": "2019-10-01T12:44:03.684Z",
  "devdoc": {
    "author": "Edgar Herrador - <edgar.herrador@slock.it>",
    "methods": {
      "a()": {
        "details": "When function a() of contract A is called, the contract will made a call (DELEGATECALL) to the function a() of the library and the calling context is passed to the library.",
        "return": "The address of this funtion is returned and not the library's."
      }
    },
    "title": "A - Implementing the contract for an example  for a Library Driven Development approach."
  },
  "userdoc": {
    "methods": {}
  }
}