{
  "contractName": "B",
  "abi": [
    {
      "constant": false,
      "inputs": [],
      "name": "increment",
      "outputs": [
        {
          "name": "",
          "type": "uint256"
        }
      ],
      "payable": false,
      "stateMutability": "nonpayable",
      "type": "function"
    }
  ],
  "bytecode": "0x608060405234801561001057600080fd5b50610105806100206000396000f3fe6080604052348015600f57600080fd5b506004361060285760003560e01c8063d09de08a14602d575b600080fd5b60336049565b6040518082815260200191505060405180910390f35b60008073__D_____________________________________63e644158c90916040518263ffffffff1660e01b81526004018082815260200191505060206040518083038186803b158015609b57600080fd5b505af415801560ae573d6000803e3d6000fd5b505050506040513d602081101560c357600080fd5b810190808051906020019092919050505090509056fea165627a7a72305820bbbc64116315c4a35e2160238c89d390d18e784d0c2617d1ef0dd955ee61a3140029",
  "source": "pragma solidity >=0.4.25 <0.6.0;\n\nimport \"./D.sol\";\n\ncontract B {\n    using D for D.Counter;\n\n    D.Counter counter;\n\n    function increment() public returns (uint) {\n        return counter.incremented();\n    }\n}",
  "sourcePath": "/Users/edgarherrador/Documents/Projects/custody/brot/contracts/B.sol",
  "compiler": {
    "name": "solc",
    "version": "0.5.8+commit.23d335f2.Emscripten.clang"
  },
  "schemaVersion": "3.0.13",
  "updatedAt": "2019-10-01T12:44:03.685Z",
  "devdoc": {
    "methods": {}
  },
  "userdoc": {
    "methods": {}
  }
}