{
  "contractName": "C",
  "abi": [
    {
      "constant": true,
      "inputs": [],
      "name": "a",
      "outputs": [
        {
          "name": "",
          "type": "address"
        }
      ],
      "payable": false,
      "stateMutability": "view",
      "type": "function"
    }
  ],
  "bytecode": "0x60b4610025600b82828239805160001a60731461001857fe5b30600052607381538281f3fe730000000000000000000000000000000000000000301460806040526004361060335760003560e01c80630dbe671f146038575b600080fd5b603e6080565b604051808273ffffffffffffffffffffffffffffffffffffffff1673ffffffffffffffffffffffffffffffffffffffff16815260200191505060405180910390f35b60003090509056fea165627a7a72305820e6693a8869f8374e9df6b2f415ef56ce7588ff1117d26aba57eec712622e2a8c0029",
  "source": "pragma solidity >=0.4.25 <0.6.0;\n\n/// @title A - Implementing the library for an example  for a Library Driven Development approach.\n/// @author Edgar Herrador - <edgar.herrador@slock.it>\nlibrary C {\n\n    /*\n     * Public functions\n     */\n\n    /// @dev The library C can be seen as implicit base contracts of the contract A that use them.\n    /// @return The address of the funtion in the contract A is returned and not the address of the library C.\n    function a() public view returns (address) {\n        return address(this);\n    }\n}",
  "sourcePath": "/Users/edgarherrador/Documents/Projects/custody/brot/contracts/C.sol",
  "compiler": {
    "name": "solc",
    "version": "0.5.8+commit.23d335f2.Emscripten.clang"
  },
  "schemaVersion": "3.0.13",
  "updatedAt": "2019-10-01T12:44:03.679Z",
  "devdoc": {
    "author": "Edgar Herrador - <edgar.herrador@slock.it>",
    "methods": {
      "a()": {
        "details": "The library C can be seen as implicit base contracts of the contract A that use them.",
        "return": "The address of the funtion in the contract A is returned and not the address of the library C."
      }
    },
    "title": "A - Implementing the library for an example  for a Library Driven Development approach."
  },
  "userdoc": {
    "methods": {}
  }
}